:020000040800F2
:10000000180900204501000847290008492900086F
:100010004D2900085129000855290008000000005A
:100020000000000000000000000000005929000846
:100030005B290008000000005D2900085F29000816
:100040005F0100085F0100085F0100085F01000810
:100050005F0100085F0100085F0100085F01000800
:100060005F0100085F0100085F0100085F010008F0
:100070005F0100085F0100085F0100085F010008E0
:100080005F0100085F010008C73300085F01000836
:100090005F0100085F0100085F0100085F010008C0
:1000A0005F0100085F0100085F0100085F010008B0
:1000B0005F0100085F0100085F0100085F010008A0
:1000C0005F0100085F0100085F0100085F01000890
:1000D0005F0100085F0100085F0100085F01000880
:1000E0005F0100085F0100085F0100085F01000870
:1000F0005F0100085F0100085F0100085F01000860
:100100005F0100085F0100085F0100085F0100084F
:100110005F0100085F010008933200085F010008DA
:100120005F0100085F0100085F0100085F0100082F
:10013000DFF80CD004F0F6FC00480047E92800087E
:10014000180900200648804706480047FEE7FEE7FA
:10015000FEE7FEE7FEE7FEE7FEE7FEE7FEE7FEE777
:1001600047020008310100080CB500200190009002
:100170006C48006840F480306A49086000BF6948F4
:10018000006800F4003000900198401C0190009835
:1001900018B90198B0F5A06FF1D16248006800F479
:1001A000003010B10120009001E000200090009884
:1001B000012843D15C48006840F010005A490860AB
:1001C0000846006820F0030008600846006840F018
:1001D0000200086053484068524948600846406839
:1001E00048600846406840F48060486008464068BF
:1001F00020F47C1048600846406840F4E8104860ED
:100200000846006840F08070086000BF45480068FC
:1002100000F000700028F9D04248406820F0030048
:10022000404948600846406840F00200486000BF0E
:100230003C48406800F00C000828F9D10CBD10B50E
:10024000FFF792FF10BD10B53648006840F001007E
:1002500034490860084640683449084031494860DC
:1002600008460068324908402E4908600846006880
:1002700020F4802008600846406820F4FE004860B2
:100280004FF41F008860FFF7DAFF4FF00060294944
:10029000086010BD10B5002100200022214B5B68D2
:1002A00003F00C0121B1042906D0082928D107E068
:1002B000214B224C236027E01F4B204C236023E07E
:1002C000184B5B6803F47010164B5B6803F48032C4
:1002D000022303EB904022B9194B4343174C236090
:1002E0000DE0104B5B6803F4003323B1144B434320
:1002F000124C236003E0104B4343104C236003E097
:100300000D4B0E4C236000BF00BF064B5B68C3F370
:1003100003130C4CE15C094B1B68CB40074C23607A
:1003200010BD000000100240002002400000FFF855
:10033000FFFFF6FE08ED00E000127A00000000204A
:1003400000093D000400002031490143314A116099
:10035000704770B5002100230F22C47804B32D4CE0
:10036000246804F4E064C4F5E064210AC1F10403E4
:10037000CA40447804FA03F1847814402143090107
:10038000254C0678A155047804F01F050124AC40E3
:1003900005786D11AD0005F1E025C5F8004109E0D3
:1003A000047804F01F050124AC401C4D067876113A
:1003B00045F8264070BD1A4A0A400243154B1B1FE0
:1003C0001A60704739B1134A121D12680243114B6B
:1003D0001B1D1A6006E00F4A121D126882430D4B66
:1003E0001B1D1A607047042808D14FF0E0210969ED
:1003F00041F004014FF0E022116107E04FF0E021ED
:10040000096921F004014FF0E022116170470000FA
:100410000000FA050CED00E000E400E080E100E0FF
:1004200080FFFF1F10B50446FA48844208D101211D
:10043000401500F077FF0021601500F073FF17E012
:10044000F548844208D10121001500F06BFF00211E
:10045000201500F067FF0BE0F048844208D101212D
:10046000C80300F05FFF00214FF4004000F05AFF86
:1004700010BD30B50246002000235068E84C2040F3
:100480000D790C6844EA0524204350609068E54CDF
:100490002040D1E902542C434D7944EA45042043DD
:1004A0009060D06A20F470000C7C641EE4B2234398
:1004B00040EA0350D06230BD0021016001714171FA
:1004C0008160C16001210174704721B1826842F0EE
:1004D0000102826003E0826822F0010282607047BC
:1004E00021B1826842F48072826003E0826822F463
:1004F00080728260704710B50023CBB21AB1446895
:100500001C43446002E044689C43446010BD816821
:1005100041F0080181607047014600208A6802F0BE
:1005200008020AB1012000E000207047816841F014
:10053000040181607047014600208A6802F00402CD
:100540000AB1012000E00020704721B1826842F426
:10055000A002826003E0826822F4A00282607047F9
:10056000014600208A6802F480020AB1012000E0FE
:100570000020704710B50A4600210023416821F48D
:100580006041531E41EA4331416010BD21B14268D0
:1005900042F40062426003E0426822F4006242607A
:1005A0007047F0B504460D4600200021092D11DDED
:1005B000E068A5F10A0606EB4607072606FA07F1EA
:1005C0008843A5F10A0606EB460603FA06F108433E
:1005D000E0600CE0206905EB4507072606FA07F105
:1005E000884305EB450603FA06F108432061072A14
:1005F0000FDA606B561E06EB86071F2606FA07F118
:100600008843561E06EB860605FA06F1084360632A
:1006100022E00D2A0FDA206BD61F06EB86071F2675
:1006200006FA07F18843D61F06EB860605FA06F19F
:100630000843206310E0E06AA2F10D0606EB86078E
:100640001F2606FA07F18843A2F10D0606EB86067F
:1006500005FA06F10843E062F0BD21B1826842F478
:100660008012826003E0826822F480128260704708
:100670000146C86C80B2704766484C3000687047CD
:1006800021B1426842F48062426003E0426822F491
:1006900080624260704721B1426842F480524260F9
:1006A00003E0426822F48052426070470A4600210B
:1006B000816821F4E04111438160704721B1826873
:1006C00042F40042826003E0826822F400428260C9
:1006D000704721B1826842F40212826003E08268AE
:1006E00022F4021282607047014600208A6802F4F8
:1006F00000120AB1012000E000207047F0B5044666
:100700001546002000220026092911DDE068A1F12C
:100710000A0707EB470C072707FA0CF29043A1F1F1
:100720000A0707EB470703FA07F21043E0600CE003
:10073000206901EB410C072707FA0CF2904301EB0B
:10074000410703FA07F210432061A06BC0F3015682
:10075000EF1C06F1010CA7EB0C0707EB870C1F271A
:1007600007FA0CF29043EF1C06F1010CA7EB0C0703
:1007700007EB870701FA07F21043A063F0BD10B53D
:100780000A4600210023816B21F44011531E41EAE7
:100790000351816310BD08B5002300930090009BB6
:1007A0000B440093009B1A6008BD08B50246002068
:1007B0000090009201F12800009B184400900098DE
:1007C000006880B208BD0A4600214168164B1940F6
:1007D0001143416070474162826270470A460021BE
:1007E000416821F01F0111434160704740B1094940
:1007F0000831096841F40001064A0832116007E037
:1008000004490831096821F40001024A08321160E4
:10081000704700000024014000280140003C0140D6
:10082000FFFEF0FFFDF7F1FFFFFD3FFF0246002056
:1008300013680B400BB1012000E000207047CA4351
:100840000260704770B502460020002300240B129E
:100850005568CEB205EA060415681D4015B10CB105
:10086000012000E0002070BD00220A12D343036083
:100870007047000010B50446CC48844208D10121DD
:10088000042000F04FFD0021042000F04BFD46E065
:10089000C748844208D10121082000F043FD00210F
:1008A000082000F03FFD3AE0C248844208D101210F
:1008B000102000F037FD0021102000F033FD2EE065
:1008C000BD48844208D10121202000F02BFD0021E9
:1008D000202000F027FD22E0B848844208D1012101
:1008E000402000F01FFD0021402000F01BFD16E01D
:1008F000B348844208D10121802000F013FD00217B
:10090000802000F00FFD0AE0AE48844207D10121AB
:10091000801500F007FD0021A01500F003FD10BDBB
:1009200010B50121084600F0FDFC0021012000F077
:10093000F9FC10BD2DE9F0410246002500260020FB
:1009400000230024002791F803C00CF00F0591F854
:1009500003C00CF0100CBCF1000F03D091F802C0E2
:100960004CEA050591F800C0BCF1000F31D01468C5
:1009700000202BE04FF0010C0CFA00F3B1F800C09E
:100980000CEA03069E4220D183004FF00F0C0CFAB4
:1009900003F7BC4305FA03FC4CEA040491F803C0D6
:1009A000BCF1280F06D14FF0010C0CFA00FCC2F884
:1009B00014C00AE091F803C0BCF1480F05D14FF014
:1009C000010C0CFA00FCC2F810C0401C0828D1D35E
:1009D0001460B1F800C0BCF1FF0F34DD5468002092
:1009E0002EE000F1080C4FF0010808FA0CF3B1F802
:1009F00000C00CEA03069E4221D183004FF00F0C89
:100A00000CFA03F7BC4305FA03FC4CEA040491F822
:100A100003C0BCF1280F05D100F1080C08FA0CF84E
:100A2000C2F8148091F803C0BCF1480F07D100F15F
:100A3000080C4FF0010808FA0CF8C2F81080401CAE
:100A40000828CED35460BDE8F0814FF6FF710180D5
:100A5000022181700421C170704702460020936812
:100A60000B400BB1012000E0002070470146886870
:100A700080B2704702460020D3680B400BB10120C2
:100A800000E0002070470146C86880B270470161ED
:100A90007047416170470AB1016100E041617047F0
:100AA000C16070474FF480320A4382618161826184
:100AB00082698269704702460020434B18684FF6EE
:100AC0008073184040EA021008433F4B186070479B
:100AD0003E49C8617047F0B50A4600230024002152
:100AE000002500F00046B6F1004F02D1364EF16904
:100AF00001E0354E7168C0F3034583B200F440163F
:100B0000B6F5401F08D121F070612F4E766826F0AF
:100B100070662D4F7E6012E000F48016B6F5801FDF
:100B200006D1032606FA05F4A14341F0706106E000
:100B3000460D360103FA06F6B14341F0706122B169
:100B4000460D360103FA06F6314300F00046B6F1D1
:100B5000004F02D11C4EF16101E01B4E7160F0BDEF
:100B600030B500228B071C0F0F2303FA04F2164B3B
:100B700008338C1053F824309343134C08348D10F1
:100B800044F8253023468C1053F824308C07240F6A
:100B900000FA04F423430C4C08348D1044F825303B
:100BA00030BD0A49DC310860704700000008014090
:100BB000000C0140001001400014014000180140E9
:100BC000001C0140002001400000014000002042C4
:100BD00010B50446F748844209D10121480500F0C8
:100BE000AEFB00214FF4001000F0A9FB08E001214A
:100BF000880500F0A4FB00214FF4800000F09FFB6B
:100C000010BD2DE9F04385B004460D460026B146DF
:100C10000427DFF8A483A6884FF6C0700640684614
:100C200000F0F9FADDF80880E448B8FBF0F01FFAAC
:100C300080F946EA0906A68020884FF6FE71084032
:100C400020800026DE49286888420CD828684000A9
:100C5000B8FBF0F087B2042F00DA04273E4309F115
:100C60000100208427E0E8884BF6FF71884206D116
:100C7000286800EB4000B8FBF0F087B209E0286874
:100C800000EBC00101EB0010B8FBF0F087B247F4B5
:100C90008047C7F30B0008B947F0010747F400404D
:100CA00006434FF4967009FB00F04FF47A7190FB05
:100CB000F1F0401C2084A683208840F001002080B1
:100CC00026884FF6F5300640A88869890843064310
:100CD0002680A88929890843208105B0BDE8F083D2
:100CE00041F288310160002181804BF6FF71C180A3
:100CF0000021018141814FF480418181704721B100
:100D0000028842F00102028004E002884FF6FE737E
:100D10001A400280704721B1828842F400628280CA
:100D200004E082884FF2FF731A408280704721B13D
:100D3000828842F48052828004E082884EF6FF73FB
:100D40001A408280704721B1028842F4807202808A
:100D500004E002884FF6FF631A400280704721B119
:100D6000028842F40072028004E002884FF6FF53CA
:100D70001A400280704721B1028842F480620280EA
:100D800004E002884FF6FF331A40028070470A469B
:100D9000002181894FF60173194002F0FE031943C7
:100DA0008181704721B1828942F00102828104E091
:100DB00082894FF6FE731A408281704721B1028802
:100DC00042F04002028004E002884FF6BF731A40EE
:100DD000028070471AB183880B43838002E08388C6
:100DE0008B4383807047018270470146088AC0B2F6
:100DF000704712B141F0010102E04FF6FE73194055
:100E00000182704708B502460020009000920098C9
:100E1000084400900098008808BD21B1028842F47F
:100E20000042028003E00288C2F30E020280704793
:100E3000B1F5006F04D1028842F40062028004E040
:100E400002884FF2FF731A4002807047B1F5005FCD
:100E500004D1028842F40052028004E002884DF678
:100E6000FF731A400280704721B1028842F4805219
:100E7000028004E002884EF6FF731A400280704739
:100E8000B1F5006F04D1028842F40062028004E0F0
:100E900002884FF2FF731A400280704721B1028826
:100EA00042F02002028004E002884FF6DF731A400D
:100EB000028070470146088B0012704721B10288FA
:100EC00042F01002028004E002884FF6EF731A40ED
:100ED0000280704721B9028842F08002028004E05B
:100EE00002884FF67F731A4002807047B1F5804F39
:100EF00005D0828B4BF6FF731A40828303E0828B0E
:100F000042F480428283704770B502460024002577
:100F100000230020958A138B1B0445EA030626F064
:100F20007F4404EA01068E4201D1012000E0002046
:100F300070BD10B501460020002300228B8A0A8B69
:100F4000120443EA020424F07F4010BD0CB50246AF
:100F5000002000230193009300920B0F019321F0D6
:100F60007F41019B1BB1009B1433009303E0090CEC
:100F7000009B18330093009B1B680B400BB10120B2
:100F800000E000200CBD002221F07F42D343838289
:100F9000704730B5024600200023948801F0E065D8
:100FA00004EA154321F07F41948A0C4054B14BB1BF
:100FB000012008E00054004000127A0040420F0077
:100FC000A0860100002030BD002221F07F42D343E3
:100FD000838270470E49086070470D49486070472A
:100FE0000B49886070474AF6AA2009490860704793
:100FF0004CF6CC4006490860704701460020044A80
:10100000D2680A400AB1012000E0002070470000C9
:1010100000300040DF48006840F00100DD49086012
:1010200008464068DC490840DA49486008460068DC
:10103000DA490840D74908600846006820F4802053
:1010400008600846406820F4FE0048604FF41F0026
:1010500088607047CF49096821F48031CD4A11601A
:101060001146096821F480211160B0F5803F03D05A
:10107000B0F5802F0ED106E0C649096841F48031F1
:10108000C44A116007E0C349096841F4A021C14A7C
:10109000116000E000BF00BF704710B5014600229C
:1010A000002300204A11012A02D1BA4C236806E02D
:1010B000022A02D1B74C236A01E0B64C636A01F000
:1010C0001F02012494401C400CB1012000E00020CC
:1010D00010BD38B5002000900024002500BF31204D
:1010E000FFF7DBFF05460098401C00900098B0F524
:1010F000A06F01D0002DF2D03120FFF7CEFF08B154
:10110000012400E00024204638BD01460020A14A09
:10111000106820F0F80040EAC10010607047A04954
:1011200008607047024600209A4B586820F47C10F3
:1011300042EA01031843974B586070479849086684
:10114000704701460020934A506820F0030008438E
:10115000506070478F48406800F00C0070470146AF
:1011600000208C4A506820F0F0000843506070471F
:1011700001460020874A506820F4E0600843506030
:10118000704701460020834A506820F4605040EACE
:10119000C1005060704729B17E4A527A02437D4BAC
:1011A0005A7204E07B4A527A82437A4B5A727047F1
:1011B0007B49D8310860704701460020754A506865
:1011C00020F440400843506070470021714A2032AB
:1011D0001170704A82F82010012802D004280AD128
:1011E00004E001216B4A2032117005E00521694AB3
:1011F0002032117000E000BF00BF704769490860ED
:1012000070476449096A0143624A1162704765493F
:1012100044390860704730B50021002200240023C3
:101220005C4D6D6805F00C0121B1042905D0082939
:1012300023D105E05C4D056022E05B4D05601FE0B9
:10124000544D6D6805F47012524D6D6805F480348C
:10125000022505EB92421CB9544D554305600BE045
:101260004C4D6D6805F400351DB1504D554305607A
:1012700002E04D4D5543056002E04B4D056000BF57
:1012800000BF444D6D6805F0F0010909484D6B5CE5
:101290000568DD4045603F4D6D6805F4E061090A71
:1012A000434D6B5C4568DD4085603A4D6D6805F4E3
:1012B0006051C90A3E4D6B5C4568DD40C560354DE7
:1012C0006D6805F44041890B3A4D6B5CC568B5FB10
:1012D000F3F5056130BD29B12E4A526902432D4B09
:1012E0005A6104E02B4A526982432A4B5A61704783
:1012F00029B1284A92690243264B9A6104E0254AA3
:1013000092698243234B9A61704729B1214AD2697D
:101310000243204BDA6104E01E4AD26982431D4B2E
:10132000DA61704729B11B4AD2680243194BDA606F
:1013300004E0184AD2688243164BDA60704729B13C
:10134000144A12690243134B1A6104E0114A1269EC
:101350008243104B1A617047124940390860704748
:101360000F49C86470470B49C87170470948406A03
:1013700040F0807007494862704701460020054AE6
:1013800092680A400AB1012000E00020704701493C
:1013900088727047001002400000FFF8FFFFF6FE61
:1013A000000042428004424200127A0000093D00DF
:1013B000140000202400002010B50446BE488442DA
:1013C00008D101218014FFF7ADFF0021A014FFF721
:1013D000A9FF16E0B948844208D101210014FFF7A3
:1013E000AEFF00212014FFF7AAFF0AE0B4488442B0
:1013F00007D10121C013FFF7A2FF0021E013FFF77F
:101400009EFF10BD10B50022028802F441520B88E5
:101410004C8823438C882343CC8823430C89234363
:101420004C8923438C892343CC8923431A4302806C
:10143000838B4FF2FF74234083830B8A038210BD9A
:101440002DE9F04F85B005460C464FF00009022704
:101450004FF000084FF0010B0026B246A88B4FF268
:1014600040010840A88302202884B5F81C90A06899
:10147000022801D100BF38E0A08810B94FF0010B5D
:1014800001E04FF0020B8D48854200D100E000BF23
:101490006846FFF7C0FEDDF800A0E088B0F5007FE9
:1014A0000AD14FEA1A2000EB80004000A168B0FB8F
:1014B000F1F0401D86B20BE04FEA4B10BAFBF0F0A2
:1014C00000EB80004000A168B0FBF1F0401D86B247
:1014D0000A20B6FBF0F606F00108A6EB0800C0F300
:1014E0004F074FF6FF7000EA0828022F01DBFF2F9D
:1014F00002DD02274FF00008E08840EA0800384388
:101500002884A088A189084361880843218808436A
:1015100040F4006040EA0909A5F81C9005B0BDE858
:10152000F08F0021018041808180C1800181418153
:101530008181C181072101827047002101804180A2
:101540008180C1800221816000218181704721B1A9
:10155000028842F04002028004E002884FF6BF7326
:101560001A400280704721B1828B42F480628283EC
:1015700004E0828B4FF6FF331A408283704730B508
:10158000002400230C110125A540ABB21AB18588B7
:101590001D43858002E085889D43858030BD1AB15A
:1015A00083880B43838002E083888B43838070476A
:1015B000818170470146888970474FF6FF629142EA
:1015C00004D0028842F48072028004E002884FF660
:1015D000FF631A400280704721B1828842F0040202
:1015E000828004E082884FF6FB731A408280704745
:1015F00002884FF2FF731A40028002880A43028079
:101600007047018841F480510180704721B1028800
:1016100042F40052028004E002884DF6FF731A4043
:101620000280704702460020012901D0108B00E0A3
:10163000908A70470146088A7047B1F5804F04D1FF
:10164000028842F48042028004E002884BF6FF7375
:101650001A40028070470246002013890B400BB1EC
:10166000012000E000207047CA4302817047F0B5B6
:101670000246002000240023002501F00F07012668
:10168000BE40B4B20B1101269E40B3B2968806EA62
:1016900003051689264016B10DB1012000E0002097
:1016A000F0BD10B5002201F00F040123A3409AB24F
:1016B000D343038110BD00000030014000380040DA
:1016C000003C004010B50446FE48844208D1012188
:1016D000C014FFF727FE0021E014FFF723FEC4E04B
:1016E000B4F1804F08D101210846FFF728FE002100
:1016F0000120FFF724FEB8E0F348844208D101211D
:101700000220FFF71CFE00210220FFF718FEACE0CC
:10171000EE48844208D101210420FFF710FE002189
:101720000420FFF70CFEA0E0E948844208D1012123
:101730000820FFF704FE00210820FFF700FE94E0D8
:10174000E448844208D101211020FFF7F8FD002170
:101750001020FFF7F4FD88E0DF48844208D1012122
:101760002020FFF7ECFD00212020FFF7E8FD7CE0C2
:10177000DA48844208D101214014FFF7D3FD00214B
:101780006014FFF7CFFD70E0D548844209D10121F4
:10179000C804FFF7C7FD00214FF40020FFF7C2FD8A
:1017A00063E0D048844209D101210805FFF7BAFD62
:1017B00000214FF48010FFF7B5FD56E0CA4884427F
:1017C00009D101214805FFF7ADFD00214FF40010BC
:1017D000FFF7A8FD49E0C548844208D10121402017
:1017E000FFF7ADFD00214020FFF7A9FD3DE0C04817
:1017F000844208D101218020FFF7A1FD0021802033
:10180000FFF79DFD31E0BB48844208D101218015DE
:10181000FFF795FD0021A015FFF791FD25E0B648E3
:10182000844209D101210804FFF77CFD00214FF417
:101830008030FFF777FD18E0B048844209D10121DC
:101840004804FFF76FFD00214FF40030FFF76AFDF9
:101850000BE0AB48844208D101218804FFF762FD08
:1018600000214FF48020FFF75DFD10BD00220288AB
:10187000944B98420ED0994B98420BD0B0F1804FC8
:1018800008D0914B984205D0904B984202D0904B93
:10189000984204D14FF68F731A404B881A438D4BF0
:1018A000984207D08C4B984204D04FF6FF431A4021
:1018B000CB881A4302808B8883850B880385814BF4
:1018C00098420BD0854B984208D08B4B984205D05C
:1018D0008A4B984202D08A4B984201D10B7A0386F8
:1018E00001238382704770B5002400220023058CF9
:1018F0004FF6FE7635400584028C8388048B4FF6C4
:101900008F752C40B51E2C400D882C43751E2A4027
:101910000D892A434D882A436A4DA8420BD06F4D4A
:10192000A84208D0744DA84205D0744DA84202D0F8
:10193000734DA84213D14FF6F7752A404D892A43BB
:101940004FF6FB752A408D882A434FF6FF652B40E2
:101950004FF6FF552B408D892B43CD892B43838038
:101960000483CD888586028470BD70B50024002272
:101970000023058C4FF6EF7635400584028C838872
:10198000048B48F6FF752C404FF6FF452C400D8820
:101990004FF6FF7606EA05252C434FF6DF752A4001
:1019A0000D8906EA05152A434D8806EA05152A43DE
:1019B000444DA84202D0494DA8421DD14FF67F7533
:1019C0002A404D894FF6FF7606EA05152A434FF661
:1019D000BF752A408D8806EA05152A434FF6FF3564
:1019E0002B404FF2FF752B408D8906EA85052B436E
:1019F000CD8906EA85052B4383800483CD8805873E
:101A0000028470BD70B5002400220023058C4FF6BF
:101A1000FF6635400584028C8388848B4FF68F7572
:101A20002C404FF6FC752C400D882C434FF6FF558B
:101A30002A400D894FF6FF7606EA05252A434D8890
:101A400006EA05252A431F4DA84202D0234DA8428D
:101A50001DD14FF2FF752A404D894FF6FF7606EAF9
:101A600005252A434FF6FF352A408D8806EA0525CD
:101A70002A434EF6FF752B404DF6FF752B408D899E
:101A800006EA05152B43CD8906EA05152B4383800D
:101A90008483CD888587028470BD70B500220023C1
:101AA0000024058C4EF6FF7635400584038C84882F
:101AB000828B48F6FF752A404FF6FF452A400D8875
:101AC00020E00000002C014000040040000800401D
:101AD000000C0040001000400014004000340140A1
:101AE000004C0140005001400054014000180040EB
:101AF000001C004000200040004001400044014024
:101B0000004801404FF6FF7606EA05252A434DF6C8
:101B1000FF752B400D8906EA05352B434D8806EAF3
:101B200005352B43FA4DA84202D0FA4DA84208D100
:101B30004BF6FF752C408D894FF6FF7606EA85152A
:101B40002C4384808283CD88A0F84050038470BDEC
:101B5000828B4FF2FF331A408283828B4FF6FF73E2
:101B600003EA01231A4382837047F0B50C461546F9
:101B7000002200210026078C4EF6FF7C07EA0C07A6
:101B80000784828B018C4FF6FF7707EA043640F614
:101B9000FF473A404FF6FF7707EA05273A434FF6EB
:101BA000FF7707EA03373A43D94FB8420ED0D94FEF
:101BB000B8420BD0B0F1804F08D0D74FB84205D013
:101BC000D64FB84202D0D64FB84206D14DF6FF7775
:101BD000394046F48057394305E047F6FF5739400E
:101BE00044F48057394382830184F0BD828B4FF6E1
:101BF000F3731A408283828B0A4382837047F0B565
:101C00000C461546002200210026078C4FF6FF6C7B
:101C100007EA0C070784828B018C4FF6FF7707EAEF
:101C200004264FF60C773A404FF6FF7707EA031782
:101C30002F433A43B64FB8420ED0B64FB8420BD0FE
:101C4000B0F1804F08D0B44FB84205D0B34FB8427E
:101C500002D0B34FB84206D14FF6FF57394046F491
:101C60008077394305E04FF2FF57394044F48077DD
:101C7000394382830184F0BD028B4FF2FF331A4057
:101C80000283028B4FF6FF7303EA01231A43028398
:101C90007047F0B50C461546002200210026078C3F
:101CA0004FF6EF7C07EA0C070784028B018C4FF696
:101CB000FF7707EA041640F6FF473A404FF6FF77F2
:101CC00007EA03373A434FF6FF7707EA05273A4317
:101CD0008F4FB8420ED08F4FB8420BD0B0F1804F2B
:101CE00008D08D4FB84205D08C4FB84202D08C4FEF
:101CF000B84206D14FF6DF77394046F01007394336
:101D000005E04FF65F77394044F01007394302830E
:101D10000184F0BD028B4FF6F3731A400283028BED
:101D20000A4302837047F0B50C4615460022002195
:101D3000068C4FF6FE773E400684028B018C4FF6F0
:101D40000C7632407E1C06EA03162E433243704E58
:101D5000B0420ED06F4EB0420BD0B0F1804F08D0E1
:101D60006D4EB04205D06D4EB04202D06C4EB042C6
:101D700006D14FF6FD76314044F00106314305E0CF
:101D80004FF6F576314044F0010631430283018479
:101D9000F0BD70B505460C465D4885420ED05D48E5
:101DA00085420BD0B5F1804F08D05B48854205D005
:101DB0005A48854202D05A48854200D100E000BF0F
:101DC000208850B92389A28861882846FFF7ABFF95
:101DD000E1882846FFF79EFF25E0208804280AD1E5
:101DE0002389A28861882846FFF753FFE1882846A7
:101DF000FFF742FF17E0208808280AD12389A2882C
:101E000061882846FFF7FBFEE1882846FFF7EEFED3
:101E100009E02389A28861882846FFF7A6FEE188A9
:101E20002846FFF795FE70BD2DE9F04105460C46AA
:101E300000260127608808B9022600E00026A08855
:101E4000012801D1022700E001272088A0B92389B9
:101E5000A28861882846FFF766FFE1882846FFF7D9
:101E600059FF23893A4631462846FFF712FFE18899
:101E70002846FFF701FF13E02389A28861882846DE
:101E8000FFF707FFE1882846FFF7F6FE23893A4669
:101E900031462846FFF747FFE1882846FFF73AFF1B
:101EA000BDE8F0810A884B881A438B881A43CB8897
:101EB0001A430B891A434B891A438B891A43A0F89A
:101EC000442070474FF6FF71818000210180C1805E
:101ED0004180017270470021018041808180C18072
:101EE000018141818181C181704700210180418050
:101EF000012181800021C180018170470021018082
:101F000041808180C18001814181818170470000D1
:101F1000002C014000340140000400400008004053
:101F2000000C004021B1028842F00102028004E06E
:101F300002884FF6FE731A400280704731B1B0F844
:101F4000442042F40042A0F8442005E0B0F84420C8
:101F5000C2F30E02A0F8442070471AB183890B43E4
:101F6000838102E083898B4383817047818270473C
:101F700041EA0203A0F8483070471AB183890B4345
:101F8000838102E083898B438381704701894FF607
:101F9000F8721140018170470A46002101894FF60D
:101FA0008F73194011430181704730B504460D46C7
:101FB00029462046FFF7F0FF208940F007002081E6
:101FC00030BD2DE9F04104460D4616461F46602DF2
:101FD00006D13B46012231462046FFF75AFE05E076
:101FE0003B46012231462046FFF79DFE294620460A
:101FF000FFF7D2FF208940F007002081BDE8F08183
:1020000030B50C4600210189C9B24FF6FF7505EACB
:102010000325154325432943018130BD2DE9F041B6
:1020200005460E4617469846002443463A46314632
:102030002846FFF7E5FF2C894FF6F870044044F07E
:1020400007044FF68F70044044F070042C81BDE803
:10205000F081F0B504460D4616461F463B46324613
:1020600029462046FFF7CCFF208940F4804020819C
:10207000F0BD0185828270470A46002101884FF633
:102080008F731940114301807047F0B50C46154617
:102090001E460021002200230189028B038C4FF68B
:1020A000F877394021434FF6FC473A4040F2011798
:1020B0003A434FF6DD773B404FF6FF7707EA0617C6
:1020C0002F433B43018102830384F0BD0A46002174
:1020D000018B4FF68F7319401143018370470A46F5
:1020E0000021018B48F6FF7319404FF6FF7303EA96
:1020F00002231943018370470A460021818B4FF662
:102100008F7319401143818370470A460021818BE8
:1021100048F6FF7319404FF6FF7303EA0223194391
:102120008183704721B1028842F08002028004E07E
:1021300002884FF67F731A400280704721B182886F
:1021400042F00402828004E082884FF6FB731A405A
:102150008280704721B1828842F00802828004E0C8
:1021600082884FF6F7731A408280704721B18288C7
:1021700042F00102828004E082884FF6FE731A402A
:10218000828070470A460021018B4FF6F773194091
:102190001143018370470A460021018B4FF2FF7300
:1021A00019404FF6FF7303EA022319430183704776
:1021B0000A460021818B4FF6F77319401143818342
:1021C00070470A460021818B4FF2FF7319404FF68A
:1021D000FF7303EA02231943818370470A460021F3
:1021E000018B4FF6FB7319401143018370470A4678
:1021F0000021018B4FF6FF3319404FF6FF7303EABE
:1022000002231943018370470A460021818B4FF650
:10221000FB7319401143818370470A460021818B6B
:102220004FF6FF3319404FF6FF7303EA02231943B9
:10223000818370470A460021018B4FF67F73194056
:102240001143018370470A460021018BC1F30E013F
:102250004FF6FF7303EA02231943018370470A46CE
:102260000021818B4FF67F731940114381837047A2
:102270000A460021818BC1F30E014FF6FF7303EA7A
:1022800002231943818370470A460021018C4FF6CF
:10229000FD7319401143018470470A460021018CE7
:1022A0004FF6F77319401143018470470A46002125
:1022B000018C4FF6DF7319404FF6FF7303EA0213E8
:1022C0001943018470470A460021018C4FF67F7341
:1022D00019404FF6FF7303EA021319430184704754
:1022E0000A460021018C4FF6FF5319404FF6FF7349
:1022F00003EA02231943018470470A460021018C36
:102300004FF2FF7319404FF6FF7303EA022319439C
:10231000018470470A460021018C4DF6FF73194075
:102320004FF6FF7303EA023319430184704730B557
:10233000002301248C40A3B2048C9C430484048CAD
:1023400002FA01F5ADB22C43048430BD30B5002350
:1023500004248C40A3B2048C9C430484048C02FAB1
:1023600001F5ADB22C43048430BD70B503460020A6
:1023700000241846183001258D40ACB21D8CA543B1
:102380001D8409B1082909D100EB6100056825F019
:10239000700505600568154305600EE00D1FC5F367
:1023A0004E052844056825F4E045056005684FF6AC
:1023B000FF7606EA02263543056070BD21B102882A
:1023C00042F00202028004E002884FF6FD731A40D8
:1023D0000280704721B1028842F00402028004E0CA
:1023E00002884FF6FB731A400280704721B1828841
:1023F00042F08002828004E082884FF67F731A40A8
:102400008280704702884FF6F7731A400280028874
:102410000A430280704782884FF68F731A40828089
:1024200082880A438280704702894FF6F8731A4007
:10243000028102890A430281704702894FF67F7345
:102440001A40028102890A430281704781847047E1
:102450008185704781867047018770478187704703
:10246000A0F84010704702884FF6FF431A400280E0
:1024700002880A43028070470146888E70470146F1
:10248000088F70470146888F70470146B1F84000B9
:1024900070470146888C70470146088D7047024698
:1024A0000020138A0B400BB1012000E00020704790
:1024B000CA430282704730B5024600200023002440
:1024C000158A05EA0103958905EA010413B10CB1E7
:1024D000012000E0002030BDCA43028270470000A6
:1024E00010B50446FB48844209D101218803FEF758
:1024F00019FF00214FF48040FEF714FF32E0F64848
:10250000844209D101214804FEF719FF00214FF44C
:102510000030FEF714FF25E0F048844209D1012184
:102520008804FEF70CFF00214FF48020FEF707FF20
:1025300018E0EB48844209D10121C804FEF7FFFEF0
:1025400000214FF40020FEF7FAFE0BE0E54884423C
:1025500008D101210805FEF7F2FE00214FF480109A
:10256000FEF7EDFE10BD2DE9F04786B005460E469C
:102570000024A24600BFA1460027B08900B100BFD9
:102580002F462C8A4CF6FF700440F08804432C82BE
:10259000AC894EF6F3100440B08831890843718944
:1025A00008430443AC81AC8A4FF6FF400440B08935
:1025B0000443AC8201A8FEF72EFEC648874202D132
:1025C000DDF810A001E0DDF80CA0A88900F40040BF
:1025D00040B10AEBCA0000EB0A1031684900B0FBB9
:1025E000F1F807E00AEBCA0000EB0A103168890035
:1025F000B0FBF1F86420B8FBF0F00401200964217D
:1026000001FB1089A88900F4004040B1322000EBA2
:10261000C900B0FBF1F000F00700044308E03220ED
:1026200000EB09106421B0FBF1F000F00F0004434F
:102630002C8106B0BDE8F0874FF4165101600021EF
:102640008180C18001810C214181002181817047FD
:1026500010B502460020108A4FF2FF0318400B8885
:102660004C8823438C882343CC882343184310820F
:1026700010BD0021018041808180C180704721B15F
:10268000828942F40052828104E082894DF6FF7310
:102690001A4082817047F0B50346002400260025C9
:1026A000002040F66A17B94200D100BF1846C1F3B6
:1026B000421401F01F06012707FA06F5012C01D18B
:1026C0000C3004E0022C01D1103000E014301AB1BB
:1026D00007682F43076002E00768AF430760F0BD5B
:1026E0001AB1838A0B43838202E0838A8B438382FD
:1026F0007047028A4FF6F0731A400282028A0A4338
:102700000282704782894FF2FF731A408281828968
:102710000A438281704721B1828942F0020282819C
:1027200004E082894FF6FD731A4082817047028A65
:102730004FF6DF731A400282028A0A430282704710
:1027400021B1028A42F48042028204E0028A4BF6FE
:10275000FF731A4002827047C1F3080282807047FB
:1027600001468888C0F308007047818941F0010163
:1027700081817047028BD2B20283028B42EA01222E
:1027800002837047028B02F47F420283028B0A436A
:102790000283704721B1828A42F02002828204E0E3
:1027A000828A4FF6DF731A408282704721B1828A93
:1027B00042F01002828204E0828A4FF6EF731A40E0
:1027C0008282704721B1828A42F00802828204E04C
:1027D000828A4FF6F7731A408282704721B182894C
:1027E00042F40042828103E08289C2F30E028281B8
:1027F000704721B1828A42F40062828204E0828AB8
:102800004FF2FF731A4082827047828A4FF6FB7341
:102810001A408282828A0A438282704721B1828A68
:1028200042F00202828204E0828A4FF6FD731A406F
:102830008282704702460020B1F5007F00D100BFC0
:1028400013880B400BB1012000E00020704701F419
:102850000072B2F5007F00D100BFCA43028070470A
:1028600070B50246002400230025002040F66A16B9
:10287000B14200D100BFC1F3421501F01F03012690
:1028800006FA03F3012D02D19689334006E0022DAA
:1028900002D1168A334001E0968A33400C12012699
:1028A00006FA04F41688344013B10CB1012000E09C
:1028B000002070BD10B50022002340F66A14A1422A
:1028C00000D100BF0A1201249440A3B2DC4304806B
:1028D00010BD0000003801400044004000480040A6
:1028E000004C00400050004040F27121042000F0F4
:1028F000C2F900F092F800F000F900F0D0FB00F00F
:1029000033F800F061F800F0EDF900F093FA00F010
:1029100045FD00F077FE00F037FF00F0C9FD01F043
:1029200089F900F0E9FF01F0CFFB01F06FFC00F046
:1029300084F907E000F0B1F900F024F901F0C2FADF
:1029400000F05FF9F6E7704700BFFEE700BFFEE763
:1029500000BFFEE700BFFEE770477047704710B545
:1029600000F000F910BD000008B501210820FEF7B5
:10297000BFFC2020ADF8000010208DF803000320DC
:102980008DF8020069460F48FDF7D4FF0120ADF82D
:10299000000069460B48FDF7CDFF0220ADF80000AE
:1029A00069460848FDF7C6FF20210648FEF76FF884
:1029B00001210448FEF76BF802210248FEF767F890
:1029C00008BD0000000C01400020B6490880B6494F
:1029D0000880B6490870B6490880B6490880B649EB
:1029E0000880B6490880B6490880B6490880B649CB
:1029F0000880704708B54FF4A060FDF7A5FC2520BE
:102A00008DF8000001208DF801008DF802008DF88E
:102A100003006846FDF79DFC08BD00B585B00121A7
:102A20000420FEF765FC01218803FEF761FC4FF4EA
:102A30000070ADF8100018208DF8130003208DF8F9
:102A4000120004A9A148FDF775FF4FF48060ADF8AE
:102A5000100004208DF8130004A99C48FDF76AFFBC
:102A60004FF4E13000900020ADF80400ADF806000E
:102A7000ADF80800ADF80C000820ADF80A00694672
:102A80009348FFF770FDFFF7B5FF012240F2255193
:102A90008F48FFF700FE01218D48FFF7F0FD05B0DC
:102AA00000BD70B504460D4629462046FFF754FE8A
:102AB00000BF80212046FFF7BDFE0028F9D070BD81
:102AC00070B504460D46E1B28148FFF745FE00BFF0
:102AD00080217F48FFF7AEFE0028F9D0204670BD68
:102AE00010B5044600BF20217948FFF7A3FE002857
:102AF000F9D07748FFF734FE10BD30B5754800684F
:102B0000754AB0FBF2F1B1F1807F01D301201DE0E5
:102B100021F07F40401E4FF0E022506150170F22FD
:102B2000002807DA13071D0E6C4B00F00F04241F5A
:102B30001D5503E013071C0E694B1C5400BF0020F9
:102B40004FF0E022906107201061002008B100BF23
:102B5000FEE74FF0E020006940F001004FF0E02177
:102B6000086130BD4F480088401C4E4908804E48DF
:102B70000088401C4C4908804D480088401C4C4946
:102B80000880704747480088642805DB01204A49CF
:102B9000088000204349088043480088B0F57A7FC8
:102BA00014DB002040490880012044490880414846
:102BB0000088401C3F490880084600880A2805DB39
:102BC00001204049088000203A49088038480088A0
:102BD00041F28831884213DB00203549088001200A
:102BE0003749088031480078401C30490870084651
:102BF0000078142804DB0020087001203249088086
:102C0000704700202C4908802C4908802C490880F6
:102C10002C4908802C4908807047002107E042F6C3
:102C2000E06100BF0A1EA1F1010399B2FAD1021EB0
:102C3000A0F1010398B2F2D1704710B501212448E8
:102C4000FFF72FFF0120FFF7E8FF33212048FFF7B0
:102C500028FF0120FFF7E1FFAB211D48FFF721FF0F
:102C60000120FFF7DAFFCC211948FFF71AFF0120F6
:102C7000FFF7D3FF10BD70B505460C4645F2555021
:102C8000FEF7A8F92846FEF7A8F92046FEF7A8F9AE
:102C9000FEF7A9F9FEF7ACF970BD10B5FEF7A3F980
:102CA00010BD0000280000202A0000203000002075
:102CB0002C0000202E0000203200002034000020D4
:102CC00036000020380000203A00002000080140B3
:102CD0000038014000000020A086010018ED00E04F
:102CE00000E400E008B501210420FEF701FB4FF4E9
:102CF0008070ADF8000010208DF8030003208DF8DF
:102D0000020069464648FDF715FE00204549087057
:102D10004549087001204549087008BD424A1278AB
:102D2000824275DA414A1278002A71D1012904D011
:102D3000022925D0032969D145E03D4A1288F2B124
:102D4000384A1278521C374B1A701A461278042AE5
:102D500006DD00221A70344A1278521C324B1A7067
:102D6000304A1278022A05DA4FF480722C4B143361
:102D70001A6004E04FF48072294B10331A6045E06A
:102D80002B4A1288F2B1274A1278521C254B1A702E
:102D90001A4612780A2A06DD00221A70224A127890
:102DA000521C214B1A701F4A1278052A05DA4FF47B
:102DB00080721B4B14331A6004E04FF48072184B7E
:102DC00010331A6022E01A4A1288F2B1154A1278BA
:102DD000521C144B1A701A461278102A06DD002273
:102DE0001A70114A1278521C0F4B1A700D4A127841
:102DF000082A05DA4FF48072094B14331A6004E094
:102E00004FF48072064B10331A6000BF06E0FFE7F4
:102E10000022054B1A700122044B1A707047000003
:102E2000000801403C0000203D0000203E00002042
:102E30003600002038B501211420FEF759FA012090
:102E4000ADF8000028208DF8030003208DF8020063
:102E500069467F48FDF76EFD4FF40050ADF8000065
:102E600028208DF8030003208DF802006946784879
:102E7000FDF760FD002404E0002076490855601C41
:102E8000C4B2052CF8DB38BD0246724B995C01F0E8
:102E90001F0001F080034BB9052804D141F08001E7
:102EA00041F0400103E0431CD8B200E0052001F0EE
:102EB000800313B140F0800001E020F0800001F0B9
:102EC000400313B140F0400001E020F0400001F069
:102ED000200313B140F0200001E020F020005D4B02
:102EE000985470470246114601F01F0001F080031C
:102EF0000BB9002006E0431ED8B218B921F08001BA
:102F000041F0200101F0800313B140F0800001E0A6
:102F100020F0800001F0400313B140F0400001E0D8
:102F200020F0400001F0200313B140F0200001E048
:102F300020F02000474B9854704710B501214448B9
:102F4000FDF78BFD012802D1FFF79EFF02E0012073
:102F5000FFF7C8FF4FF400513F48FDF77EFD012801
:102F600003D10220FFF790FF02E00220FFF7BAFF33
:102F700000F068F9012806D10020384908700320C4
:102F8000FFF782FF02E00320FFF7ACFF10BD10B592
:102F90000446012C04D0022C0ED0032C17D112E0D1
:102FA00000202E49087001232DA2022101F0B9F959
:102FB00001202D4908600AE001232CA203210020F2
:102FC00001F0AFF903E000202449087000BF00BF02
:102FD00010BD012804D0022803D0032803D101E04A
:102FE00001E000E000BF00BF7047012804D00228C4
:102FF00007D0032807D105E001211B4A121F1160E9
:1030000001E000E000BF00BF0020704770B5002560
:103010001BE01048445D04F0800050B104F0400013
:1030200020B124F040042846FFF7B1FF2846FFF7FF
:10303000D0FF04F0200020B124F020042846FFF740
:10304000D4FF04484455681CC5B2052DE1DB70BDB2
:10305000000801403F000020001001403E00002019
:103060006C69616E67000000140C014066656920A0
:1030700066616E0008B54FF4E060FDF765F9362033
:103080008DF8000000208DF8020003208DF801006B
:1030900001208DF803006846FDF75BF908BD0EB509
:1030A00001211020FEF731F94FF47A70ADF80400D9
:1030B0004720ADF800000020ADF80600ADF8020092
:1030C0008DF8080069467B48FEF7D0FB012179485E
:1030D000FFF7EEF9012211467648FEF73EFF012187
:1030E0007448FEF71FFF00211020FEF70EF90020A4
:1030F0007149088071490880FFF7BCFF0EBD08B513
:1031000001210420FEF7F4F80220ADF800000420AD
:103110008DF8030069466A48FDF70CFC08BD00B550
:1031200087B001210820FEF7F0F84FF6FF70ADF8E8
:1031300014004720ADF810000020ADF81600ADF8DF
:1031400012008DF8180004A95E48FEF78FFB0420DA
:10315000ADF804000120ADF808000020ADF80A0029
:10316000ADF80C0001A95748FEF713FE01215548A0
:10317000FEF7D8FE07B000BD08B501210420FEF718
:10318000B7F80220ADF8000010208DF803000320EE
:103190008DF8020069464A48FDF7CCFB02214848F9
:1031A000FDF777FC0520FFF738FD04208DF80300BC
:1031B00069464348FDF7BEFB08BD10B5FFF7DCFFCD
:1031C00000214048FFF742F905213E48FFF784F906
:1031D0000AE03C48FFF75DF94FF69B71884203DD3A
:1031E0003848FFF756F910BD04213648FFF757F964
:1031F0000028EED03348FFF742F9F4E710B5FFF7A7
:103200007EFFFFF78CFFFFF7D8FF0446462C05DD55
:10321000502C03DA29480480002010BD0120FCE76F
:1032200070B506460024002505E0FFF7C6FF0446FA
:10323000AC4200DD2546301EA6F10101CEB2F4D12C
:10324000284670BD70B5002503263046FFF7E8FF1D
:1032500004461A480088463084420FDD3046FFF7A6
:10326000DFFF04461848007828B914480088463023
:10327000844200DD012502201349087012480078BD
:10328000002804DD10480078401E0F4908702846C9
:1032900070BD10B501210748FFF701F920B10648BC
:1032A0000088401C0449088001210248FFF714F9F6
:1032B00010BD00000010004042000020440000202B
:1032C00000080140000C00404600002008B54FF403
:1032D000C060FDF739F812208DF8000001208DF84C
:1032E00001008DF802008DF803006846FDF731F803
:1032F00008BD00B585B001218802FDF7F9FF002067
:1033000000908DF8040001208DF805004FF4602036
:1033100002900020039001208DF8100069464B4870
:10332000FDF7A7F84FF44040FDF746FF05230122C3
:103330000B214648FDF735F901224FF40871434847
:10334000FDF7D9F801214148FDF7BFF83F48FDF7E7
:10335000DEF800BF3D48FDF7DFF80028FAD13B4812
:10336000FDF7E4F800BF3948FDF7E5F80028FAD189
:1033700001213648FDF7E9F805B000BD08B5012187
:103380001020FDF7B5FF0220ADF8000000208DF8F9
:10339000030069462E48FDF7CDFA08BD10B500249C
:1033A00008E000202B4921F814002B4941F82400A3
:1033B000601CC4B2052CF4DBFFF7E0FFFFF799FFB8
:1033C000FFF784FF10BD10B54FF408711F48FDF7DB
:1033D00039FA012804D11D48FDF74AF91D49088032
:1033E0004FF408711948FDF73FFA10BD2DE9F04779
:1033F0001849088801F033F981464FF08B4101F0FC
:1034000075F8044601F03DF907464FF06632134B5C
:1034100001F0AAF8054601F047F90F490860104885
:10342000008888B10B4801880EA001F0E9FB0A4929
:10343000086801F026F9044622460B4612A001F066
:10344000DFFB1AA001F0DCFBBDE8F087002801409B
:1034500000100140E0040020EC04002066660A40F1
:103460003A0000200D0A2054686520637572726569
:103470006E742041442076616C7565203D20307863
:1034800025303458200A00000D0A20546865206356
:10349000757272656E742041442076616C7565208A
:1034A0003D2025662056200A000000000D0A00007D
:1034B00010B56FF00400FCF796FF344800683449FB
:1034C000B0FBF1F0334908700846007800EB40018A
:1034D000C1EBC0104FF6FF7101EAC0002E49088011
:1034E00010BD01462B4A12784A434FF0E0235A613F
:1034F00000229A611A46126942F001021A6100BF65
:103500004FF0E022106900F001021AB100F480329D
:10351000002AF5D04FF0E022126922F001024FF0AC
:10352000E0231A6100229A61704701461A4A128804
:103530004A434FF0E0235A6100229A611A46126909
:1035400042F001021A6100BF4FF0E022106900F062
:1035500001021AB100F48032002AF5D04FF0E022C7
:10356000126922F001024FF0E0231A6100229A61F1
:10357000704730B50446002505E04FF47A70FFF738
:10358000D4FF681CC5B2A542F7D330BD00000020AF
:1035900000127A00480000204A000020002001E0CC
:1035A000411CC8B20A28FBDB704710B58020754962
:1035B00008604020091F0860FFF7F0FF8020714974
:1035C000091F086010BD08B501210820FDF790FE15
:1035D0004020ADF8000003208DF8020014208DF883
:1035E00003008020ADF8000003208DF802001420B5
:1035F0008DF80300694663481438FDF79BF9FFF71F
:10360000D4FF08BD10B5FFF7DEFF10BD10B5802058
:103610005C49091F086040200860FFF7BFFF802059
:1036200058490860FFF7BAFF402056490860FFF785
:10363000B5FF10BD10B5802052490860FFF7AEFFFE
:1036400040205049091F0860FFF7A8FF40204D495E
:103650000860FFF7A3FF80204A49091F086010BDDA
:1036600010B580204749091F0860FFF797FF4020E9
:103670004449091F0860FFF791FF40204149086055
:10368000FFF78CFF10BD70B50446002523E004F061
:10369000800020B180203B49091F086002E08020A3
:1036A00038490860FFF77AFF40203649091F086053
:1036B000FFF774FF402033490860FFF76FFF072DC5
:1036C00003D180202F49091F08606006040EFFF710
:1036D00065FF681CC5B2082DD9DB70BD70B5054605
:1036E0000024002616E06006040E40202549091F2C
:1036F0000860FFF753FF23480C38006800F0800093
:1037000008B1601CC4B240201E490860FFF746FFA4
:10371000701CC6B2082EE6DB15B9FFF7A1FF01E069
:10372000FFF788FF204670BD10B580201549091F9E
:103730000860FFF733FF40201249091F0860FFF7B8
:103740002DFF10480C38006800F0800008B10124FB
:1037500000E0002440200B490860FFF71FFF2046CF
:1037600010BD70B50446FFF72EFFFFF74FFF204650
:10377000FFF789FFFFF7D8FF0546FFF716FF28463A
:1037800070BD0000140C014000B587B00121080392
:10379000FDF7AEFD01211420FDF7AAFD0120ADF8D3
:1037A000040003208DF8060010208DF8070001A901
:1037B0004148FDF7BFF82020ADF8040018208DF82F
:1037C000070001A93D48FDF7B5F84020ADF8040019
:1037D00001A93A48FDF7AEF88020ADF8040001A930
:1037E0003648FDF7A7F801213348FDF750F90020CE
:1037F000ADF808004FF48270ADF80A000020ADF873
:103800000C000220ADF80E000120ADF810004002BF
:10381000ADF812000020ADF81400ADF81600072036
:10382000ADF8180002A92648FDF7ECFD0121244857
:10383000FDF78DFE07B000BD10B50446214621A05E
:1038400001F0DEF9002010BD10B504464FF48050A1
:10385000284908600AE027490868411E254A116086
:1038600020B90020FFF7E8FFC0B210BD02211448C4
:10387000FDF7F1FE0028EED021461148FDF798FE35
:103880004FF480501B4908600AE01A490868411E3D
:10389000184A116020B90120FFF7CEFFC0B2E4E75B
:1038A00002210748FDF7D7FE0028EED00448FDF7B7
:1038B00081FEC0B2D9E700000010014000080140BD
:1038C000003001403C3C2D464C4153482D4552525E
:1038D0004F522D3E3E2053504920B5C8B4FDB3ACE5
:1038E000CAB1216572726F72436F6465203D2025F5
:1038F000640A00004C00002000B585B00121480595
:10390000FDF703FD01210820FDF7F2FCC020ADF812
:10391000000003208DF802001C208DF8030069468A
:10392000F948FDF707F8F948FDF752F90020ADF81E
:1039300008004BF6FF70ADF80A000A20ADF80C0045
:103940004FF48060ADF80E000001ADF81000F048B3
:1039500001900121ED48FDF7D2F901A9EB48FDF7EF
:1039600050F905B000BD10B5EAA001F049F90020FA
:1039700010BD70B504460D4600BF4FF40031E3485A
:10398000FDF7E4FA0028F8D10121E048FDF7DBF962
:103990004FF48050E849086008E0E7490868411E94
:1039A000E54A116010B9FFF7DEFF70BDE349D74863
:1039B000FDF7AAFA0028F0D00022D221D348FDF763
:1039C00018FA4FF48050DC49086008E0DA490868CA
:1039D000411ED94A116010B9FFF7C5FFE5E7D84984
:1039E000CA48FDF791FA0028F0D02146C748FDF7F4
:1039F000FAF94FF48050D049086008E0CE490868D1
:103A0000411ECD4A116010B9FFF7ADFFCDE7CC499B
:103A1000891CBE48FDF778FA0028EFD02946BB483C
:103A2000FDF7E1F94FF48050C349086008E0C2494E
:103A30000868411EC04A116010B9FFF794FFB4E74F
:103A4000BF49891CB148FDF75FFA0028EFD001217A
:103A5000AE48FDF784F90120A7E770B505460E468C
:103A600014464FF42040B449086008E0B2490868A1
:103A7000411EB14A116010B9FFF775FF70BD4FF4D8
:103A80000031A248FDF762FA0028EFD101219F48DA
:103A9000FDF759F94FF48050A749086008E0A6499E
:103AA0000868411EA44A116010B9FFF75CFFE5E702
:103AB000A2499648FDF728FA0028F0D00022D2212A
:103AC0009248FDF796F94FF480509B49086008E052
:103AD00099490868411E984A116010B9FFF743FFE1
:103AE000CCE797498948FDF70FFA0028F0D001216B
:103AF0008648FDF704F931468448FDF774F94FF420
:103B000080508D49086008E08B490868411E8A4A48
:103B1000116010B9FFF727FFB0E78949891C7B487E
:103B2000FDF7F2F90028EFD001217848FDF70BF9F5
:103B30004FF480508049086008E07F490868411EC2
:103B40007D4A116010B9FFF70EFF97E77B496F4878
:103B5000FDF7DAF90028F0D00122D2216B48FDF7F9
:103B600048F94FF480507449086008E072490868C9
:103B7000411E714A116010B9FFF7F5FE7EE76F49EB
:103B8000491C6248FDF7C0F90028EFD016E0012C6F
:103B900007D100215D48FDF7EEF801215B48FDF7F4
:103BA000DEF866493F315948FDF7AEF930B1574864
:103BB000FDF71BF928706D1C601E84B2002CE6D145
:103BC00001215248FDF7D7F8012057E72DE9F041D0
:103BD00007460C461546FFF719FDD220FFF753FDA7
:103BE000FFF7A2FD3846FFF74EFDFFF79DFDFFF7FB
:103BF0000DFDD320FFF747FDFFF796FD002606E0F9
:103C00000120FFF76BFD2070641C701CC6B2681E9B
:103C1000B042F5DC0020FFF761FD2070FFF7C5FC26
:103C2000BDE8F08170B504460D4621462846FFF7F1
:103C3000A0FE70BD10B500240CE0002041490855DD
:103C400041490855414941F82400414941F82400BF
:103C5000601CC4B2032CF0DB6420FFF766FCB621C5
:103C60007E20FFF7DFFF11217E20FFF7DBFF15210C
:103C70007E20FFF7D7FF03214120FFF7D3FF00216C
:103C80004320FFF7CFFF10BD70B504460D46164622
:103C9000324621462846FFF7E0FE70BD7CB506227D
:103CA00069460C20FFF7F0FF9DF801009DF8001019
:103CB00040EA0120234908709DF803009DF8021096
:103CC00040EA01201F4948709DF805009DF8041046
:103CD00040EA01201B498870002411E01949095D60
:103CE0004FF4FA6201FB02F000F0B0FC05464FF021
:103CF0008E4100F0FBFB154941F82400601CC4B262
:103D0000032CEBDB7CBD0000000C014000540040A4
:103D1000801A06003C3C2D4D50552D4552524F52B5
:103D20002D3E3E204932432054696D656F757420E5
:103D30006572726F72210A005800002001000300B2
:103D400082000700500000205300002000050020E2
:103D50000C0500202DE9FC47062269461220FFF7DA
:103D600093FF9DF801009DF8001040EA0120624990
:103D700008709DF803009DF8021040EA01205E499A
:103D800048709DF805009DF8041040EA01205A494A
:103D90008870002415E05849085D00F065FC07466E
:103DA000564A574B00F0E0FB054600F07DFC81468B
:103DB0004FF08D4100F09AFB524941F82400601CFD
:103DC000C4B2032CE7DBBDE8FC8708B500200090F7
:103DD00006226946FFF758FF4B48008820B19DF83E
:103DE00000104AA000F00CFF9DF80000D12801D07F
:103DF000002008BD0120FCE770B54348008800287A
:103E00005FD04748017847A000F0FAFE4C490868A7
:103E100000F037FC044622460B464AA000F0F0FEB4
:103E20003F48417850A000F0EBFE4549486800F05B
:103E300028FC044622460B4652A000F0E1FE38481A
:103E4000817859A000F0DCFE3D49886800F019FC3B
:103E5000044622460B465BA000F0D2FE62A000F0B2
:103E6000CFFE2548017861A000F0CAFE2549086808
:103E700000F007FC044622460B4663A000F0C0FE9B
:103E80001D4841786BA000F0BBFE1E49486800F059
:103E9000F8FB044622460B466DA000F0B1FE164822
:103EA000817876A000F0ACFE1649886800F0E9FB46
:103EB000044622460B4678A000F0A2FE4AA000F07D
:103EC0009FFE70BD10B5FFF780FFFFF77EFF48B182
:103ED00001207C490860FFF7E1FEFFF73BFFFFF799
:103EE0008BFF07E077480838006880F001007549CB
:103EF0000839086010BD0000530000209A99999974
:103F0000999923400C050020380000205265672055
:103F100044617461203D20307825303258200A00F9
:103F2000500000204779726F20582D617869732006
:103F300064617461203D20307825303258200A00B9
:103F4000000500204779726F20582D617869732031
:103F5000636F6E76657273696F6E20616E676C65F4
:103F6000203D2025660A00004779726F20592D6197
:103F70007869732064617461203D20307825303287
:103F800058200A004779726F20592D617869732093
:103F9000636F6E76657273696F6E20616E676C65B4
:103FA000203D2025660A00004779726F205A2D6156
:103FB0007869732064617461203D20307825303247
:103FC00058200A004779726F205A2D617869732052
:103FD000636F6E76657273696F6E20616E676C6574
:103FE000203D2025660A00000A000000416363208E
:103FF000582D617869732064617461203D203078A8
:1040000025303258200A000041636320582D617822
:10401000697320636F6E76657273696F6E2041639A
:1040200063656C65726174696F6E203D2025660A58
:104030000000000041636320592D6178697320649A
:10404000617461203D20307825303258200A00000C
:1040500041636320592D6178697320636F6E7665C3
:104060007273696F6E20416363656C657261746918
:104070006F6E203D2025660A00000000416363202A
:104080005A2D617869732064617461203D20307815
:1040900025303258200A0000416363205A2D617890
:1040A000697320636F6E76657273696F6E2041630A
:1040B00063656C65726174696F6E203D2025660AC8
:1040C00000000000140C014000B585B001218805F6
:1040D000FDF71BF901210820FDF70AF94FF44060B4
:1040E000ADF8000003208DF802001C208DF80300BD
:1040F0006946F648FCF71EFCF548FCF769FD002010
:10410000ADF808004BF6FF70ADF80A003020ADF8AE
:104110000C004FF48060ADF80E000001ADF8100007
:10412000EC4801900121EA48FCF7E9FD01A9E848C3
:10413000FCF767FD05B000BD70B504460D4600BF35
:104140004FF40031E248FCF701FF0028F8D10121CB
:10415000DF48FCF7F8FD00BFDF49DD48FCF7D4FE7F
:104160000028F9D000227821D948FCF742FE00BF90
:10417000DA49D748FCF7C8FE0028F9D02146D448D0
:10418000FCF731FE00BFD549891CD148FCF7BCFEC5
:104190000028F8D02946CE48FCF725FE00BFCF49BD
:1041A000891CCB48FCF7B0FE0028F8D00121C84894
:1041B000FCF7D5FD70BD10B5044621460020FFF781
:1041C000BBFF10BD10B5044621464020FFF7B4FFE9
:1041D00010BD70B50646002415E004F1B001C8B268
:1041E000FFF7E9FF0020FFF7E6FF1020FFF7E3FFEE
:1041F000002504E03046FFF7E5FF681CC5B2802DBE
:10420000F8DB601CC4B2082CE7DB70BD10B564207D
:10421000FFF78BF9AE20FFF7CEFF2020FFF7CBFF93
:104220001020FFF7C8FFB020FFF7C5FFC820FFF739
:10423000C2FF0020FFF7BFFF1020FFF7BCFF4020A8
:10424000FFF7B9FF8120FFF7B6FFFF20FFF7B3FFAD
:10425000A120FFF7B0FFA620FFF7ADFFA820FFF7D2
:10426000AAFF3F20FFF7A7FFA420FFF7A4FFD3205A
:10427000FFF7A1FF0020FFF79EFFD520FFF79BFF70
:10428000F020FFF798FFD920FFF795FF2220FFF7D6
:1042900092FFDA20FFF78FFF1220FFF78CFFDB2061
:1042A000FFF789FF2020FFF786FF8D20FFF783FFB0
:1042B0001420FFF780FFAF20FFF77DFF0020FFF7FE
:1042C00088FF10BD70B504460D4605F1B001C8B2B7
:1042D000FFF771FF102141EA1410FFF76CFF04F0A3
:1042E0000F0141F00100FFF766FF70BD10B500201F
:1042F000FFF76FFF10BD10B58D20FFF75CFF142096
:10430000FFF759FFAF20FFF756FF10BD10B58D2006
:10431000FFF751FF1020FFF74EFFAE20FFF74BFFD6
:1043200010BD2DE9F0470646894617469A464FF0DC
:10433000000800240025BAF1010F03D0BAF1020FE2
:104340005ED125E020E0785D203800F0FF087E2E69
:1043500004DD002609F1010000F0FF09494630465E
:10436000FFF7B0FF002409E008EB48015C4A02EBCC
:104370004101085DFFF726FF601CC4B2062CF3DB89
:10438000B01DC6B2681CC5B2785D0028DBD137E02D
:1043900032E0785D203800F0FF08782E04DD00263A
:1043A00009F1010000F0FF0949463046FFF78AFF96
:1043B000002407E004EB08114A4A505CFFF702FFB3
:1043C000601CC4B2082CF5DB09F10100C1B2304613
:1043D000FFF778FF002408E004EB08110831414A98
:1043E000505CFFF7EFFE601CC4B2082CF4DB06F152
:1043F0000800C6B2681CC5B2785D0028C9D100BFEC
:1044000000BFBDE8F0872DE9F04180460E46174613
:1044100000247D0131464046FFF754FF00BF06E00F
:104420003149485DFFF7CEFE6D1C601CC4B2102CF4
:10443000F6DB701CC1B24046FFF744FF002406E0E3
:104440002949485DFFF7BEFE6D1C601CC4B2102CEC
:10445000F6DBBDE8F0812DE9F05F06460F46904699
:104460001C46DDF828A04FF0000BE11704EB51715A
:10447000C910A4EBC10131B92046E11704EB517119
:10448000C1F3C70506E02046E11704EB5171C910DE
:10449000491CCDB23D4614E029463046FFF712FFD5
:1044A000B1460AE059460BF1010B1AF80100FFF77B
:1044B00089FE09F1010000F0FF09C145F2DB681C2B
:1044C000C5B2A542E8DBBDE8F09F0000000C01404A
:1044D00000580040801A0600010003008200070017
:1044E000F25400081A5700085C00002030B480EA3B
:1044F000010202F0004530F0004221F0004013D0EC
:1045000090B1C30DD40DC2F31601C0F31600E41A26
:1045100041F4000140F400027D34914201D3641C57
:1045200000E04900002C02DA30BC002070474FF454
:1045300000000023914201D3891A034340084FEA47
:104540004101F7D151B1914202D14FF0004105E054
:1045500002D24FF0010101E06FF0010103EBC45002
:10456000284430BC00F003B92DE9FE4F81EA030472
:1045700004F0004421F0004100944FF0000B23F0C0
:10458000004350EA01045ED052EA03045BD0C3F357
:104590000A54C1F30A552C44A4F2F3340194A0FB4D
:1045A0000254C1F3130141F48011C3F3130343F424
:1045B000801301FB024400FB034E840A970A44EA7D
:1045C000815447EA8357A4FB076802958D0A05FBCF
:1045D00007854FEA932C04FB0C542705029D4FEAF4
:1045E000065847EA1637B5EB08056EEB070C870E41
:1045F000920E47EA811742EA8312A7FB0201B6EB4B
:104600000B0164EB00042B0D43EA0C335E1844EB02
:104610001C50DA465146E7FB0201C5F313044FEA8A
:104620000B3343EA14534FEA0432019C43EA060376
:10463000A4F10C040294009CCDE900B400F0DDF874
:1046400003B0BDE8F08F00200146F9E7C10F80EA12
:10465000E0700844CA079623002100F091B8962321
:104660000022114600F08CB80EB540F233410291A1
:104670000021CDE900110A460B4600F0BEF803B058
:1046800000BD00F0004230F000400AD0C10D01F53D
:104690006071C0F3160042EA0151C208400711439D
:1046A000704700200146704701F0004330B421F00C
:1046B000004150EA010206D00A0DA2F56072C1F372
:1046C0001301002A02DC30BC00207047440F44EA8A
:1046D000C104C100E01830BC00EBC25000F047B884
:1046E00030B50B46014600202022012409E021FAC2
:1046F00002F59D4205D303FA02F5491B04FA02F5BF
:104700002844151EA2F10102F1DC30BD2DE9F05F55
:104710000546002092469B46884606468146402430
:104720001BE0284641464746224600F01CFA534605
:104730005A46C01A914110D311461846224600F03D
:1047400003FA2D1A67EB01084F462246012000218B
:1047500000F0FAF917EB00094E41201EA4F1010404
:10476000DFDC484631462A464346BDE8F09F002933
:10477000A8BF7047401C490008BF20F001007047E7
:1047800010B4B0FA80FC00FA0CF050EA010404BF47
:1047900010BC704749B1CCF1200421FA04F411FA9D
:1047A0000CF118BF012121430843A3EB0C01CB1DE1
:1047B0004FEA00614FEA102042BF002010BC704752
:1047C00000EBC35010440029A4BF10BC7047401C2C
:1047D000490008BF20F0010010BC704710B5141E3E
:1047E00073F1000408DA401C41F1000192185B41AA
:1047F0001A4301D120F0010010BD2DE9F04D924681
:104800009B4611B1B1FA81F202E0B0FA80F2203297
:10481000904600F099F904460F4640EA0A0041EA42
:104820000B0153465A46084313D0114653EA010080
:1048300019D0C8F14002504600F095F905460E46E1
:1048400050465946424600F07FF9084305D0012002
:1048500004E020463946BDE8F08D0020054346EAD5
:10486000E0762C4337430A986305E40AA0EB08007E
:104870000022FD0A44EA47540A3002D500200146CE
:10488000E9E7010510196941DDE9084500196941A9
:10489000BDE8F04DA2E72DE9FE4F804681EA030016
:1048A000C00F0C46009021F0004123F00045B8EB0A
:1048B0000200A94105D24046214690461C460B46BF
:1048C000024623F00040104347D0270DC7F30A00EB
:1048D000C3F30A510290401A019040286BDAC3F3E7
:1048E000130040F4801B0098924620B10023D2EBC5
:1048F000030A63EB0B0B01985946C0F14002504686
:1049000000F022F906460D4650465946019A00F03D
:104910003AF910EB08006141002487EA115284EA59
:10492000E7731A4340D0009A62B3019A012A4FEA12
:10493000075215DC001B61EB02014FF0004202EA56
:104940000752CDE90042001C41F5801132462B464A
:10495000FFF753FF03B0BDE8F08F40462146F9E76B
:10496000001B61EB0201001C41F5801300185B4144
:104970002018A2F5001747EB030140EAD570B619DD
:104980006D4111E06D084FEA360645EAC0754FEA01
:104990000752001B61EB0201001C41F58011490820
:1049A0004FEA30000019514132462B4603B0BDE8B2
:1049B000F04FFFF713BF0098012240000023D0EB17
:1049C000020263EBE073009821464FEAE074B8EB13
:1049D000000061EB0401E9E783F000435BE781F04D
:1049E000004158E72DE9F04D81EA030404F0004B43
:1049F00021F0004514464FF0000A23F0004150EA30
:104A0000050220D054EA01021DD0C5F30A57024620
:104A1000C5F31303C1F31300C1F30A5640F4801524
:104A200043F48013A7EB0608101BD64608F2FD38A6
:104A300073EB050002D308F1010801E092185B4115
:104A4000B8F1000F03DA00200146BDE8F08D002028
:104A50004FF48011064684460EE0171B73EB0507E2
:104A600005D3121B63EB050306434CEA010C49080E
:104A70004FEA300092185B4150EA0107EDD152EA4B
:104A8000030012D082EA040083EA0501084305D03E
:104A9000101BAB4106D20122002306E000224FF09A
:104AA000004302E06FF0010253101AEB06004CEBDA
:104AB000085110EB0A0041EB0B01BDE8F04DFFF788
:104AC0008DBEC1F30A52C1F3130140F2FF3341F42A
:104AD00080119A4202DA00200146704740F23343C7
:104AE0009A42A2F2334202DC524200F03CB800F09B
:104AF0002BB8000030B5041E71F1000404DB4FF048
:104B00000044404264EB0101141E73F1000405DB14
:104B10001C464FF00043524263EB0403994208BF26
:104B2000904230BD064C074D06E0E06840F00103BE
:104B300094E8070098471034AC42F6D3FBF7FCFA30
:104B40000C5D00082C5D0008202A04DB203A00FAE6
:104B500002F1002070479140C2F1200320FA03F3D4
:104B6000194390407047202A04DB203A21FA02F0D2
:104B70000021704721FA02F3D040C2F12002914097
:104B8000084319467047202A06DBCB17203A41FA22
:104B900002F043EAE07306E041FA02F3D040C2F1CA
:104BA0002002914008431946704770B58C1810F8E0
:104BB000015B15F0070301D110F8013B2A1106D162
:104BC00010F8012B03E010F8016B01F8016B5B1E7C
:104BD000F9D12B0705D40023521E0DD401F8013B57
:104BE000FAE710F8013BCB1A921C03E013F8015BC3
:104BF00001F8015B521EF9D5A142D8D3002070BD47
:104C00000FB4054B10B503A9044A029800F0DAF876
:104C100010BC5DF814FB0000C12A0008DC04002071
:104C200002E008C8121F08C1002AFAD17047704775
:104C3000002001E001C1121F002AFBD170470000D3
:104C40002DE9FF5F82B00021DDE90430020DDDF8BF
:104C500040B0034318D044F61050A2F2FF32424352
:104C60001514119801281FD0A5EB0B00401C5FEA1A
:104C7000000A4FF000064E4FDFF83891B04650461C
:104C800015D5CAF1000413E0119801244AA30128A4
:104C900001D16FEA0B010298119AC0E90031C0E915
:104CA000024206B0BDE8F09FCBF10000DFE704460A
:104CB0000021404A491842EB0450CDE9001012E0AF
:104CC000E00707D032463B4640464946FFF74CFCDA
:104CD0008046894632463B4610461946FFF744FC5B
:104CE00006460F466410002CEAD1DDE90401DDE937
:104CF0000023BAF1000F06DAFFF736FC42464B46B6
:104D0000FFF732FC05E0FFF76DFE42464B46FFF72A
:104D100069FE04460E460022284BFFF7EBFE03D83F
:104D20004FF0FF30014607E00022254B2046314678
:104D3000FFF7B1FDFFF7C5FE102409E0002C0ADBE8
:104D40000A220023FFF7E2FC039B30321A55641E4F
:104D500050EA0102F2D1641C039AC4F11103144415
:104D6000119A012A03D0012208430DD10AE0084319
:104D700004D000204FF0110B119072E7A3EB0B054C
:104D80006D1E0DE05B4504DD4FF0000205F10105ED
:104D900004E003DA4FF00002A5F10105002AECD08F
:104DA00002981199C0E90231C0E9004579E7000095
:104DB000000014400000F03F300000000000F0430D
:104DC0000000E03F2DE9FF4F95B09B46894606461F
:104DD00000250FE2252877D100242746F84A012133
:104DE000059400E0044316F8013F203B01FA03F06C
:104DF0001042F7D130782A2811D06FF02F03307885
:104E0000A0F13002092A16D8059A44F0020402EBF8
:104E1000820203EB42021044761C0590EFE759F83A
:104E2000042B0592002A03DA504244F40054059002
:104E300044F00204761C30782E2816D116F8010FA3
:104E400044F004042A280DD06FF02F023078A0F12E
:104E50003003092B09D807EB870302EB4303C7187C
:104E6000761CF3E759F8047B761C30786C280FD059
:104E700006DC4C2817D068280DD06A2814D104E02D
:104E8000742810D07A280FD10DE044F400140AE001
:104E900044F4801401E044F440147278824202D158
:104EA00004F58014761C761C307866280BD013DC51
:104EB000582877D009DC002875D04528F6D0462838
:104EC000F4D047281AD19DE118E0632835D0642832
:104ED00079D0652812D195E1702873D008DC672855
:104EE000F1D069286FD06E280DD06F2806D1B5E0BB
:104EF00073282CD0752875D0782874D05A46179905
:104F000090476D1C75E1C4F30250022809D00328B4
:104F10000DD0D9F8001004280DD00D6009F1040956
:104F200067E1D9F80010EA17C1E90052F6E7D9F8AD
:104F300000100D80F2E70D70F0E719F8041B8DF8F2
:104F4000001000208DF80100EA46012003E059F826
:104F500004AB4FF0FF3061074FF0000102D40DE0C9
:104F600008F101018846B9420FDA8045F8DB1AF8EA
:104F700008100029F4D108E008F1010188468142B7
:104F8000FADB1AF808100029F6D105985B46A0EB69
:104F9000080721463846179A00F094FA284400EB97
:104FA000080507E04DE029E10DE01AF8010B5A462B
:104FB00017999047B8F10108F7D25B462146384669
:104FC000179A13E142E00A220092C4F302524FF012
:104FD000000A022A08D059F804CB032A4FEAEC71E0
:104FE0000AD00DE029E02AE009F1070121F00702CB
:104FF000F2E802C1914609E00FFA8CFC4FEAEC712D
:10500000042A03D14FFA8CFC4FEAEC71002907DA2D
:105010000A460021DCF1000C61EB02012D2202E0C6
:10502000220504D52B228DF80420012203E0E2079B
:1050300001D02022F7E7904659E00A2102E0102231
:105040000DE010214FF0000A00910BE010224FF00C
:10505000000A44F004040827009203E008224FF0FD
:10506000000A0092C4F30252022A05D059F804CB78
:105070000021032A08D009E009F1070121F0070205
:10508000F2E802C1914605E01FFA8CFC042A01D126
:105090000CF0FF0C4FF00008220728D5702806D02E
:1050A000009B83F0100353EA0A0305D00EE0402270
:1050B0008DF80420012208E05CEA010206D03022CB
:1050C0008DF804208DF8050002229046009B83F0A5
:1050D000080353EA0A030AD15CEA010201D162071C
:1050E00005D530228DF804204FF001087F1E582886
:1050F00004D034A003900EA802900DE036A0F9E78A
:1051000053466046009AFFF701FB84460398825C91
:105110000298401E029002705CEA0100F0D10298F1
:1051200006A9081A00F1200A600702D524F4803489
:1051300000E00127574502DDA7EB0A0000E0002050
:1051400000EB0A01009005984144401A0590E003E5
:1051500006D45B462146179A059800F0B3F905443A
:10516000002706E001A85A46C05D179990476D1CBC
:105170007F1C4745F6DBE0030CD55B462146179ABA
:10518000059800F09FF9054404E030205A4617992D
:1051900090476D1C0099481E00900029F5DC08E03E
:1051A000029802995A460078491C02911799904733
:1051B0006D1CBAF10001AAF1010AF1DC65E1000001
:1051C00009280100303132333435363738396162DD
:1051D00063646566000000003031323334353637A1
:1051E00038394142434445460000000000F058F978
:1051F0000544761C307800287FF4ECAD19B02846C1
:10520000BDE8F08F620700D4062709F1070222F0FB
:10521000070CFCE80223E14603F000485FEA080CB3
:1052200002D00FF2702C0DE05FEA045C02D50FF2A1
:10523000682C07E05FEAC47C02D00FF2602C01E02A
:10524000AFF2700C4FF0FF3823F00043CDF850C0A0
:1052500065280CD006DC452809D046281DD04728F3
:105260003DD13DE0662818D067287ED138E0002186
:10527000112F01DB112000E0781CCDE9000106A907
:105280000EA8FFF7DDFCDDE90F010E9A0391002166
:10529000009207F1010A04914DE04FF000400097A1
:1052A000CDE9011006A90EA8FFF7CAFCDDE90F023F
:1052B00003920E9B11990022DDF80CA0009304923A
:1052C00011B9791C00EB010AB7EB0A0004D4C0F154
:1052D000FF3007F1010A0490AAEB0700019044E0B7
:1052E000012F00DA01270021112F01DD112000E03C
:1052F0003846CDE9000106A90EA8FFF7A1FCDDE9BB
:105300000F010E9A0391002104910092BA462107E1
:105310000CD40399514500DA8A46BAF1010F05DD34
:10532000009AAAF10101515C302908D0B84202DA92
:1053300010F1040F06DA0121CDE9011015E0AAF100
:105340000101E9E7002805DC049901440491AAEB76
:10535000000102E0411C514500DD8A460499401AD3
:10536000401C01904FF000400290200704D40198A7
:10537000504501DBCDF8048000208DF84F000298E5
:105380000DF14F07B0F1004F25D02B200E90029861
:105390004FF0020800280CDA404202902D200E90B7
:1053A00007E00A210298FFF79BF93031029007F8D5
:1053B000011DB8F10001A8F10108F2DC02980028F3
:1053C000EFD1791E0E980870307800F0200040F080
:1053D000450007F8020D12A8C01B00F10708149839
:1053E000007800B1012000EB0A01019801EBE071A7
:1053F00005984144401A401E0590E00306D45B46E0
:105400002146179A059800F05DF805441498007835
:1054100018B15A46179990476D1CE00324D55B4696
:105420002146179A059800F04DF805441CE00498B1
:10543000002807DBDDE90301884203DD0098405CBA
:10544000179901E0179930205A469047049805F1C2
:105450000105401C04900198401E019004D12E20AB
:105460005A46179990476D1CBAF10001AAF1010A3A
:10547000DDDC05E017F8010B5A46179990476D1CC3
:10548000B8F10001A8F10108F4DC5B462146179A47
:105490000598ABE62D0000002B0000002000000066
:1054A0002DE9F041044600251E461746880404D421
:1054B00005E039462020B0476D1C641EF9D528460A
:1054C000BDE8F0812DE9F041044600251E469046D6
:1054D000C80301D5302700E02027880404D505E063
:1054E00041463846B0476D1C641EF9D52846BDE8D4
:1054F000F0810000000000000000002F000000000C
:105500000700070000147F147F1400242A7F2A124A
:105510000062640813230036495522500000050339
:10552000000000001C224100000041221C00001469
:10553000083E08140008083E0808000000A06000AB
:10554000000808080808000060600000002010083B
:105550000402003E5149453E0000427F40000042A7
:1055600061514946002141454B31001814127F100A
:10557000002745454539003C4A4949300001710939
:10558000050300364949493600064949291E0000ED
:105590003636000000005636000000081422410094
:1055A00000141414141400004122140800020151C4
:1055B000090600324959513E007C1211127C007FCD
:1055C00049494936003E41414122007F4141221C68
:1055D000007F49494941007F09090901003E4149CD
:1055E000497A007F0808087F0000417F41000020C1
:1055F00040413F01007F08142241007F404040406D
:10560000007F020C027F007F0408107F003E4141B2
:10561000413E007F09090906003E4151215E007F9D
:10562000091929460046494949310001017F010114
:10563000003F4040403F001F2040201F003F4038B7
:10564000403F0063140814630007087008070061F6
:105650005149454300007F41410000552A552A55D4
:10566000000041417F00000402010204004040406C
:105670004040000001020400002054545478007F90
:105680004844443800384444442000384444487F67
:1056900000385454541800087E0901020018A4A4CC
:1056A000A47C007F080404780000447D4000004092
:1056B00080847D00007F102844000000417F40006E
:1056C000007C04180478007C080404780038444402
:1056D000443800FC242424180018242418FC007CDE
:1056E0000804040800485454542000043F44402057
:1056F000003C4040207C001C2040201C003C4030EE
:10570000403C004428102844001CA0A0A07C004479
:1057100064544C44141414141414000000000000C9
:1057200000000000000000000000000000F8000081
:105730000000000000333000000000100C06100CC8
:105740000600000000000000000040C07840C07863
:105750004000043F04043F040400007088FC08304B
:105760000000001820FF211E0000F008F000E018E3
:10577000000000211C031E211E0000F0088870009C
:1057800000001E2123241927211010160E000000EE
:1057900000000000000000000000000000E018040D
:1057A0000200000000071820400000020418E0007A
:1057B00000000040201807000000404080F08040BA
:1057C00040000202010F01020200000000F0000090
:1057D00000000101011F01010100000000000000A4
:1057E000000080B070000000000000000000000019
:1057F00000000001010101010101000000000000A2
:105800000000003030000000000000000000806058
:105810001804006018060100000000E010080810DD
:10582000E000000F102020100F00001010F8000002
:1058300000000020203F2020000000700808088899
:105840007000003028242221300000300888884869
:1058500030000018202020110E000000C02010F899
:10586000000000070424243F240000F8088888086A
:1058700008000019212020110E0000E0108888186F
:105880000000000F112020110E0000380808C83851
:1058900008000000003F0000000000708808088831
:1058A0007000001C222121221C0000E010080810BA
:1058B000E0000000312222110F00000000C0C000F3
:1058C00000000000003030000000000000800000F8
:1058D00000000000806000000000000080402010F8
:1058E00008000001020408102000404040404040F1
:1058F0004000040404040404040000081020408054
:105900000000002010080402010000704808080888
:10591000F0000000003036010000C030C828E81058
:10592000E0000718272423140B000000C038E00013
:105930000000203C23020227382008F8888888705D
:105940000000203F202020110E00C0300808080869
:105950003800071820202010080008F80808081050
:10596000E000203F202020100F0008F88888E80879
:105970001000203F20202320180008F88888E8081D
:105980001000203F200003000000C0300808083845
:10599000000007182020221E020008F80800000856
:1059A000F808203F210101213F20000808F80808DD
:1059B00000000020203F2020000000000808F80818
:1059C0000800C08080807F00000008F888C0281888
:1059D0000800203F20012638200008F808000000B9
:1059E0000000203F20202020300008F8F800F8F8C0
:1059F0000800203F003F003F200008F830C00008AA
:105A0000F808203F200007183F00E01008080810A1
:105A1000E0000F10202020100F0008F808080808E8
:105A2000F000203F210101010000E01008080810EB
:105A3000E0000F18242438504F0008F88888888820
:105A40007000203F2000030C3020007088080808F8
:105A500038000038202121221C00180808F8080806
:105A600018000000203F2000000008F8080000088F
:105A7000F808001F202020201F000878880000C898
:105A80003808000007380E010000F80800F8000888
:105A9000F800033C0700073C030008186880806892
:105AA000180820302C03032C30200838C800C838D0
:105AB00008000000203F2000000010080808C83837
:105AC00008002038262120201800000000FE0202D5
:105AD00002000000007F40404000000C30C0000089
